{
  "_format": "hh-sol-artifact-1",
  "contractName": "ConfidentialLendingLayer",
  "sourceName": "contracts/ConfidentialLendingLayer.sol",
  "abi": [
    {
      "inputs": [
        {
          "internalType": "address",
          "name": "_aavePoolAddress",
          "type": "address"
        },
        {
          "internalType": "address",
          "name": "erc20_",
          "type": "address"
        },
        {
          "internalType": "address",
          "name": "aErc20_",
          "type": "address"
        },
        {
          "internalType": "uint256",
          "name": "maxDecryptionDelay_",
          "type": "uint256"
        }
      ],
      "stateMutability": "nonpayable",
      "type": "constructor"
    },
    {
      "inputs": [],
      "name": "AmountTooHigh",
      "type": "error"
    },
    {
      "inputs": [],
      "name": "CannotTransferOrUnwrap",
      "type": "error"
    },
    {
      "inputs": [
        {
          "internalType": "address",
          "name": "spender",
          "type": "address"
        },
        {
          "internalType": "uint256",
          "name": "allowance",
          "type": "uint256"
        },
        {
          "internalType": "uint256",
          "name": "needed",
          "type": "uint256"
        }
      ],
      "name": "ERC20InsufficientAllowance",
      "type": "error"
    },
    {
      "inputs": [
        {
          "internalType": "address",
          "name": "sender",
          "type": "address"
        },
        {
          "internalType": "uint256",
          "name": "balance",
          "type": "uint256"
        },
        {
          "internalType": "uint256",
          "name": "needed",
          "type": "uint256"
        }
      ],
      "name": "ERC20InsufficientBalance",
      "type": "error"
    },
    {
      "inputs": [
        {
          "internalType": "address",
          "name": "approver",
          "type": "address"
        }
      ],
      "name": "ERC20InvalidApprover",
      "type": "error"
    },
    {
      "inputs": [
        {
          "internalType": "address",
          "name": "receiver",
          "type": "address"
        }
      ],
      "name": "ERC20InvalidReceiver",
      "type": "error"
    },
    {
      "inputs": [
        {
          "internalType": "address",
          "name": "sender",
          "type": "address"
        }
      ],
      "name": "ERC20InvalidSender",
      "type": "error"
    },
    {
      "inputs": [
        {
          "internalType": "address",
          "name": "spender",
          "type": "address"
        }
      ],
      "name": "ERC20InvalidSpender",
      "type": "error"
    },
    {
      "inputs": [],
      "name": "MaxDecryptionDelayTooHigh",
      "type": "error"
    },
    {
      "inputs": [],
      "name": "ReentrancyGuardReentrantCall",
      "type": "error"
    },
    {
      "inputs": [
        {
          "internalType": "address",
          "name": "token",
          "type": "address"
        }
      ],
      "name": "SafeERC20FailedOperation",
      "type": "error"
    },
    {
      "inputs": [],
      "name": "TFHESenderNotAllowed",
      "type": "error"
    },
    {
      "inputs": [],
      "name": "TooEarlyForNextRound",
      "type": "error"
    },
    {
      "anonymous": false,
      "inputs": [
        {
          "indexed": true,
          "internalType": "address",
          "name": "owner",
          "type": "address"
        },
        {
          "indexed": true,
          "internalType": "address",
          "name": "spender",
          "type": "address"
        },
        {
          "indexed": false,
          "internalType": "uint256",
          "name": "placeholder",
          "type": "uint256"
        }
      ],
      "name": "Approval",
      "type": "event"
    },
    {
      "anonymous": false,
      "inputs": [
        {
          "indexed": false,
          "internalType": "uint256",
          "name": "amount",
          "type": "uint256"
        }
      ],
      "name": "LiquiditySupplied",
      "type": "event"
    },
    {
      "anonymous": false,
      "inputs": [
        {
          "indexed": false,
          "internalType": "uint256",
          "name": "amount",
          "type": "uint256"
        }
      ],
      "name": "LiquidityWithdrawn",
      "type": "event"
    },
    {
      "anonymous": false,
      "inputs": [
        {
          "indexed": true,
          "internalType": "address",
          "name": "from",
          "type": "address"
        },
        {
          "indexed": true,
          "internalType": "address",
          "name": "to",
          "type": "address"
        },
        {
          "indexed": false,
          "internalType": "uint256",
          "name": "transferId",
          "type": "uint256"
        }
      ],
      "name": "Transfer",
      "type": "event"
    },
    {
      "anonymous": false,
      "inputs": [
        {
          "indexed": true,
          "internalType": "address",
          "name": "account",
          "type": "address"
        },
        {
          "indexed": false,
          "internalType": "uint64",
          "name": "amount",
          "type": "uint64"
        }
      ],
      "name": "Unwrap",
      "type": "event"
    },
    {
      "anonymous": false,
      "inputs": [
        {
          "indexed": false,
          "internalType": "address",
          "name": "account",
          "type": "address"
        },
        {
          "indexed": false,
          "internalType": "uint64",
          "name": "amount",
          "type": "uint64"
        }
      ],
      "name": "UnwrapFailNotEnoughBalance",
      "type": "event"
    },
    {
      "anonymous": false,
      "inputs": [
        {
          "indexed": false,
          "internalType": "address",
          "name": "account",
          "type": "address"
        },
        {
          "indexed": false,
          "internalType": "uint64",
          "name": "amount",
          "type": "uint64"
        }
      ],
      "name": "UnwrapFailTransferFail",
      "type": "event"
    },
    {
      "anonymous": false,
      "inputs": [
        {
          "indexed": true,
          "internalType": "address",
          "name": "account",
          "type": "address"
        },
        {
          "indexed": false,
          "internalType": "uint64",
          "name": "amount",
          "type": "uint64"
        }
      ],
      "name": "Wrap",
      "type": "event"
    },
    {
      "inputs": [],
      "name": "AAVE_POOL_ADDRESS",
      "outputs": [
        {
          "internalType": "address",
          "name": "",
          "type": "address"
        }
      ],
      "stateMutability": "view",
      "type": "function"
    },
    {
      "inputs": [],
      "name": "ERC20_TOKEN",
      "outputs": [
        {
          "internalType": "contract IERC20Metadata",
          "name": "",
          "type": "address"
        }
      ],
      "stateMutability": "view",
      "type": "function"
    },
    {
      "inputs": [
        {
          "internalType": "address",
          "name": "owner",
          "type": "address"
        },
        {
          "internalType": "address",
          "name": "spender",
          "type": "address"
        }
      ],
      "name": "allowance",
      "outputs": [
        {
          "internalType": "euint64",
          "name": "",
          "type": "uint256"
        }
      ],
      "stateMutability": "view",
      "type": "function"
    },
    {
      "inputs": [
        {
          "internalType": "address",
          "name": "spender",
          "type": "address"
        },
        {
          "internalType": "euint64",
          "name": "amount",
          "type": "uint256"
        }
      ],
      "name": "approve",
      "outputs": [
        {
          "internalType": "bool",
          "name": "",
          "type": "bool"
        }
      ],
      "stateMutability": "nonpayable",
      "type": "function"
    },
    {
      "inputs": [
        {
          "internalType": "address",
          "name": "spender",
          "type": "address"
        },
        {
          "internalType": "einput",
          "name": "encryptedAmount",
          "type": "bytes32"
        },
        {
          "internalType": "bytes",
          "name": "inputProof",
          "type": "bytes"
        }
      ],
      "name": "approve",
      "outputs": [
        {
          "internalType": "bool",
          "name": "",
          "type": "bool"
        }
      ],
      "stateMutability": "nonpayable",
      "type": "function"
    },
    {
      "inputs": [
        {
          "internalType": "address",
          "name": "account",
          "type": "address"
        }
      ],
      "name": "balanceOf",
      "outputs": [
        {
          "internalType": "euint64",
          "name": "",
          "type": "uint256"
        }
      ],
      "stateMutability": "view",
      "type": "function"
    },
    {
      "inputs": [],
      "name": "callNextRound",
      "outputs": [],
      "stateMutability": "nonpayable",
      "type": "function"
    },
    {
      "inputs": [
        {
          "internalType": "uint256",
          "name": "requestId",
          "type": "uint256"
        },
        {
          "internalType": "bool",
          "name": "canUnwrap",
          "type": "bool"
        }
      ],
      "name": "callbackUnwrap",
      "outputs": [],
      "stateMutability": "nonpayable",
      "type": "function"
    },
    {
      "inputs": [],
      "name": "decimals",
      "outputs": [
        {
          "internalType": "uint8",
          "name": "",
          "type": "uint8"
        }
      ],
      "stateMutability": "view",
      "type": "function"
    },
    {
      "inputs": [
        {
          "internalType": "uint256",
          "name": "",
          "type": "uint256"
        },
        {
          "internalType": "uint256",
          "name": "roundAmount",
          "type": "uint256"
        }
      ],
      "name": "executeRound",
      "outputs": [],
      "stateMutability": "nonpayable",
      "type": "function"
    },
    {
      "inputs": [
        {
          "internalType": "address",
          "name": "account",
          "type": "address"
        }
      ],
      "name": "isAccountRestricted",
      "outputs": [
        {
          "internalType": "bool",
          "name": "isRestricted",
          "type": "bool"
        }
      ],
      "stateMutability": "view",
      "type": "function"
    },
    {
      "inputs": [],
      "name": "lastUpdateTime",
      "outputs": [
        {
          "internalType": "uint256",
          "name": "",
          "type": "uint256"
        }
      ],
      "stateMutability": "view",
      "type": "function"
    },
    {
      "inputs": [
        {
          "internalType": "einput",
          "name": "eRequestedAmount",
          "type": "bytes32"
        },
        {
          "internalType": "bytes",
          "name": "inputProof",
          "type": "bytes"
        }
      ],
      "name": "lendToAave",
      "outputs": [],
      "stateMutability": "nonpayable",
      "type": "function"
    },
    {
      "inputs": [],
      "name": "name",
      "outputs": [
        {
          "internalType": "string",
          "name": "",
          "type": "string"
        }
      ],
      "stateMutability": "view",
      "type": "function"
    },
    {
      "inputs": [],
      "name": "symbol",
      "outputs": [
        {
          "internalType": "string",
          "name": "",
          "type": "string"
        }
      ],
      "stateMutability": "view",
      "type": "function"
    },
    {
      "inputs": [],
      "name": "totalSupply",
      "outputs": [
        {
          "internalType": "uint64",
          "name": "",
          "type": "uint64"
        }
      ],
      "stateMutability": "view",
      "type": "function"
    },
    {
      "inputs": [
        {
          "internalType": "address",
          "name": "to",
          "type": "address"
        },
        {
          "internalType": "einput",
          "name": "encryptedAmount",
          "type": "bytes32"
        },
        {
          "internalType": "bytes",
          "name": "inputProof",
          "type": "bytes"
        }
      ],
      "name": "transfer",
      "outputs": [
        {
          "internalType": "bool",
          "name": "",
          "type": "bool"
        }
      ],
      "stateMutability": "nonpayable",
      "type": "function"
    },
    {
      "inputs": [
        {
          "internalType": "address",
          "name": "to",
          "type": "address"
        },
        {
          "internalType": "euint64",
          "name": "amount",
          "type": "uint256"
        }
      ],
      "name": "transfer",
      "outputs": [
        {
          "internalType": "bool",
          "name": "",
          "type": "bool"
        }
      ],
      "stateMutability": "nonpayable",
      "type": "function"
    },
    {
      "inputs": [
        {
          "internalType": "address",
          "name": "from",
          "type": "address"
        },
        {
          "internalType": "address",
          "name": "to",
          "type": "address"
        },
        {
          "internalType": "euint64",
          "name": "amount",
          "type": "uint256"
        }
      ],
      "name": "transferFrom",
      "outputs": [
        {
          "internalType": "bool",
          "name": "",
          "type": "bool"
        }
      ],
      "stateMutability": "nonpayable",
      "type": "function"
    },
    {
      "inputs": [
        {
          "internalType": "address",
          "name": "from",
          "type": "address"
        },
        {
          "internalType": "address",
          "name": "to",
          "type": "address"
        },
        {
          "internalType": "einput",
          "name": "encryptedAmount",
          "type": "bytes32"
        },
        {
          "internalType": "bytes",
          "name": "inputProof",
          "type": "bytes"
        }
      ],
      "name": "transferFrom",
      "outputs": [
        {
          "internalType": "bool",
          "name": "",
          "type": "bool"
        }
      ],
      "stateMutability": "nonpayable",
      "type": "function"
    },
    {
      "inputs": [
        {
          "internalType": "uint64",
          "name": "amount",
          "type": "uint64"
        }
      ],
      "name": "unwrap",
      "outputs": [],
      "stateMutability": "nonpayable",
      "type": "function"
    },
    {
      "inputs": [
        {
          "internalType": "uint256",
          "name": "requestId",
          "type": "uint256"
        }
      ],
      "name": "unwrapRequests",
      "outputs": [
        {
          "internalType": "address",
          "name": "account",
          "type": "address"
        },
        {
          "internalType": "uint64",
          "name": "amount",
          "type": "uint64"
        }
      ],
      "stateMutability": "view",
      "type": "function"
    },
    {
      "inputs": [
        {
          "internalType": "einput",
          "name": "eRequestedAmount",
          "type": "bytes32"
        },
        {
          "internalType": "bytes",
          "name": "inputProof",
          "type": "bytes"
        }
      ],
      "name": "withdrawFromAave",
      "outputs": [],
      "stateMutability": "nonpayable",
      "type": "function"
    },
    {
      "inputs": [
        {
          "internalType": "uint256",
          "name": "amount",
          "type": "uint256"
        }
      ],
      "name": "wrap",
      "outputs": [],
      "stateMutability": "nonpayable",
      "type": "function"
    }
  ],
  "bytecode": "0x60c060405234801562000010575f80fd5b5060405162003532380380620035328339810160408190526200003391620004df565b8281816001600160a01b03166306fdde036040518163ffffffff1660e01b81526004015f60405180830381865afa15801562000071573d5f803e3d5ffd5b505050506040513d5f823e601f3d908101601f191682016040526200009a919081019062000566565b604051602001620000ac919062000619565b604051602081830303815290604052826001600160a01b03166395d89b416040518163ffffffff1660e01b81526004015f60405180830381865afa158015620000f7573d5f803e3d5ffd5b505050506040513d5f823e601f3d908101601f1916820160405262000120919081019062000566565b6040516020016200013291906200064f565b60408051601f19818403018152608080840183525f80855260208086018290528585018290526060958601919091528351918201845273fee8407e2f5e3ee68ad77cae98c434e637f516e580835273687408ab54661ba0b4aef3a44156c616c6955e0791830182905273fb03be574d14c256d56f09a198b586bdfc0a9de2948301859052739d6891a6240d6130c54ae243d8005063d05fe14b929095018290525f805160206200351283398151915280546001600160a01b031990811690961790557fed8d60e34876f751cc8b014c560745351147d9de11b9347c854e881b128ea6018054861690911790557fed8d60e34876f751cc8b014c560745351147d9de11b9347c854e881b128ea602805485169093179092557fed8d60e34876f751cc8b014c560745351147d9de11b9347c854e881b128ea60380549093169091179091557f93ab6e17f2c461cce6ea5d4ec117e51dda77a64affc2b2c05f8cd440def0e70080546001600160a01b0319167333347831500f1e73f0cccbb95c9f86b94d7b11231790556001620002c88382620006ff565b506002620002d78282620006ff565b5050506001600160a01b038216608052620151808111156200030c5760405163049587e360e41b815260040160405180910390fd5b50506001600160a01b0384811660a052601180546001600160a01b031990811686841617909155601280549091169184169190911790556200035667800000000000000062000373565b6014819055620003669062000387565b50505050620007e3565b50565b5f6200038182600862000393565b92915050565b6200037081306200044a565b5f805f80516020620035128339815191526001810154604051631ce2e8d760e31b8152600481018790527fff0000000000000000000000000000000000000000000000000000000000000060f887901b1660248201529192506001600160a01b03169063e71746b8906044016020604051808303815f875af11580156200041c573d5f803e3d5ffd5b505050506040513d601f19601f82011682018060405250810190620004429190620007cb565b949350505050565b5f5f80516020620035128339815191528054604051631974142760e21b8152600481018690526001600160a01b0385811660248301529293509116906365d0509c906044015f604051808303815f87803b158015620004a7575f80fd5b505af1158015620004ba573d5f803e3d5ffd5b50505050505050565b80516001600160a01b0381168114620004da575f80fd5b919050565b5f805f8060808587031215620004f3575f80fd5b620004fe85620004c3565b93506200050e60208601620004c3565b92506200051e60408601620004c3565b6060959095015193969295505050565b634e487b7160e01b5f52604160045260245ffd5b5f5b838110156200055e57818101518382015260200162000544565b50505f910152565b5f6020828403121562000577575f80fd5b81516001600160401b03808211156200058e575f80fd5b818401915084601f830112620005a2575f80fd5b815181811115620005b757620005b76200052e565b604051601f8201601f19908116603f01168101908382118183101715620005e257620005e26200052e565b81604052828152876020848701011115620005fb575f80fd5b6200060e83602083016020880162000542565b979650505050505050565b6c021b7b73334b232b73a34b0b61609d1b81525f82516200064281600d85016020870162000542565b91909101600d0192915050565b5f82516200066281846020870162000542565b606360f81b920191825250600101919050565b600181811c908216806200068a57607f821691505b602082108103620006a957634e487b7160e01b5f52602260045260245ffd5b50919050565b601f821115620006fa57805f5260205f20601f840160051c81016020851015620006d65750805b601f840160051c820191505b81811015620006f7575f8155600101620006e2565b50505b505050565b81516001600160401b038111156200071b576200071b6200052e565b62000733816200072c845462000675565b84620006af565b602080601f83116001811462000769575f8415620007515750858301515b5f19600386901b1c1916600185901b178555620007c3565b5f85815260208120601f198616915b82811015620007995788860151825594840194600190910190840162000778565b5085821015620007b757878501515f19600388901b60f8161c191681555b505060018460011b0185555b505050505050565b5f60208284031215620007dc575f80fd5b5051919050565b60805160a051612cdc620008365f395f818161022b015281816115a301528181611653015261172d01525f81816103fc01528181610a7c01528181610b5301528181610fc20152610fef0152612cdc5ff3fe608060405234801561000f575f80fd5b506004361061018f575f3560e01c8063a1fe84f3116100dd578063d99c2a7211610088578063e6e0950511610063578063e6e09505146103c2578063ea598cb0146103e4578063efc4c631146103f7575f80fd5b8063d99c2a7214610339578063dc412e831461039c578063dd62ed3e146103af575f80fd5b8063b820e6ce116100b8578063b820e6ce1461030a578063c7da2dac1461031d578063c8f33c9114610330575f80fd5b8063a1fe84f3146102dc578063a9059cbb146102e4578063b32c1001146102f7575f80fd5b80635466e24d1161013d5780637b7e0a5a116101185780637b7e0a5a146102ae57806395d89b41146102c15780639a094352146102c9575f80fd5b80635466e24d14610226578063576a257e1461026557806370a0823114610278575f80fd5b806323b872dd1161016d57806323b872dd146101ef578063313ce567146102025780633d0e902f14610211575f80fd5b806306fdde0314610193578063095ea7b3146101b157806318160ddd146101d4575b5f80fd5b61019b61041e565b6040516101a8919061268f565b60405180910390f35b6101c46101bf3660046126bc565b6104ae565b60405190151581526020016101a8565b5f5460405167ffffffffffffffff90911681526020016101a8565b6101c46101fd3660046126e4565b61051e565b604051600681526020016101a8565b61022461021f366004612762565b61054f565b005b61024d7f000000000000000000000000000000000000000000000000000000000000000081565b6040516001600160a01b0390911681526020016101a8565b6102246102733660046127aa565b610632565b6102a06102863660046127ca565b6001600160a01b03165f9081526003602052604090205490565b6040519081526020016101a8565b6101c46102bc3660046127e3565b610839565b61019b61087d565b6101c46102d7366004612839565b61088c565b6102246108de565b6101c46102f23660046126bc565b610979565b6101c46103053660046127e3565b6109b5565b6102246103183660046128b0565b6109f9565b61022461032b366004612762565b610d71565b6102a060165481565b6103746103473660046128de565b60106020525f90815260409020546001600160a01b03811690600160a01b900467ffffffffffffffff1682565b604080516001600160a01b03909316835267ffffffffffffffff9091166020830152016101a8565b6102246103aa3660046128f5565b610e8f565b6102a06103bd36600461291c565b610f86565b6101c46103d03660046127ca565b600f6020525f908152604090205460ff1681565b6102246103f23660046128de565b610fb5565b61024d7f000000000000000000000000000000000000000000000000000000000000000081565b60606001805461042d9061294d565b80601f01602080910402602001604051908101604052809291908181526020018280546104599061294d565b80156104a45780601f1061047b576101008083540402835291602001916104a4565b820191905f5260205f20905b81548152906001019060200180831161048757829003601f168201915b5050505050905090565b5f6104b88261115b565b336104c4818585611184565b836001600160a01b0316816001600160a01b03167f8c5be1e5ebec7d5bd14f71427d1e84f3dd0314c0f7b2291e5b200ac8c7c3b9255f1960405161050a91815260200190565b60405180910390a360019150505b92915050565b5f6105288261115b565b335f610535868386611236565b9050610543868686846112c7565b50600195945050505050565b61055833611327565b5f6105988484848080601f0160208091040260200160405190810160405280939291908181526020018383808284375f920191909152506114a092505050565b335f90815260186020526040812054919250906105b69083906114ad565b90505f6105cc82846105c75f6114db565b6114e7565b335f908152601c6020526040812054919250906105e990836114fb565b335f908152601c60205260409020819055905061060581611529565b61060f8133611533565b61061b6014548361153d565b601481905561062990611529565b50505050505050565b7f93ab6e17f2c461cce6ea5d4ec117e51dda77a64affc2b2c05f8cd440def0e700546001600160a01b03163314610667575f80fd5b6017546012546040516370a0823160e01b81523060048201525f92916001600160a01b0316906370a0823190602401602060405180830381865afa1580156106b1573d5f803e3d5ffd5b505050506040513d601f19601f820116820180604052508101906106d59190612985565b6106df91906129b0565b90505f80601754111561070a576017546106fd6305f5e100846129c3565b61070791906129da565b90505b60138054905f610719836129f9565b91905055508060155f600160135461073191906129b0565b81526020019081526020015f20546107499190612a11565b6013545f90815260156020526040908190209190915560125490516370a0823160e01b81523060048201526001600160a01b03909116906370a0823190602401602060405180830381865afa1580156107a4573d5f803e3d5ffd5b505050506040513d601f19601f820116820180604052508101906107c89190612985565b6017556780000000000000008311156107fa576107f56107f0678000000000000000856129b0565b611573565b610814565b61081461080f846780000000000000006129b0565b6116e8565b6108256780000000000000006117ca565b601481905561083390611529565b50505050565b5f610543856102f28686868080601f0160208091040260200160405190810160405280939291908181526020018383808284375f920191909152506114a092505050565b60606002805461042d9061294d565b5f6108d186866101fd8787878080601f0160208091040260200160405190810160405280939291908181526020018383808284375f920191909152506114a092505050565b5060019695505050505050565b6016546108ed90610708612a11565b421161090c576040516338e6cf8f60e11b815260040160405180910390fd5b426016556040805160018082528183019092525f916020808301908036833701905050905061093a60145490565b815f8151811061094c5761094c612a24565b602090810291909101015261097581632bb512bf60e11b5f61096f426064612a11565b5f6117d6565b5050565b5f6109838261115b565b335f9081526003602052604081205461099d9084906114ad565b90506109ab338585846112c7565b5060019392505050565b5f610543856101bf8686868080601f0160208091040260200160405190810160405280939291908181526020018383808284375f920191909152506114a092505050565b610a016118ed565b7f93ab6e17f2c461cce6ea5d4ec117e51dda77a64affc2b2c05f8cd440def0e700546001600160a01b03163314610a36575f80fd5b5f828152601060209081526040918290208251808401909352546001600160a01b0381168352600160a01b900467ffffffffffffffff16908201528115610cd3575f60067f00000000000000000000000000000000000000000000000000000000000000006001600160a01b031663313ce5676040518163ffffffff1660e01b8152600401602060405180830381865afa158015610ad6573d5f803e3d5ffd5b505050506040513d601f19601f82011682018060405250810190610afa9190612a38565b610b049190612a58565b610b0f90600a612b51565b826020015167ffffffffffffffff16610b2891906129c3565b825160405163a9059cbb60e01b81526001600160a01b039182166004820152602481018390529192507f0000000000000000000000000000000000000000000000000000000000000000169063a9059cbb906044016020604051808303815f875af1925050508015610bb7575060408051601f3d908101601f19168201909252610bb491810190612b5f565b60015b610c1d57815160208301516040517f936799e3a22b0bdb5ef05df98e796a4835cff5297075fdb001414e53f5e302a792610c109290916001600160a01b0392909216825267ffffffffffffffff16602082015260400190565b60405180910390a1610ccd565b50610c2f825f0151836020015161195c565b60208201515f80548190610c4e90849067ffffffffffffffff16612b7a565b92506101000a81548167ffffffffffffffff021916908367ffffffffffffffff160217905550815f01516001600160a01b03167f0bbd89dc609b4c985f78b075c0f9271cf66dd34e7e08bb2437a103a6ba9a8db78360200151604051610cc4919067ffffffffffffffff91909116815260200190565b60405180910390a25b50610d31565b805160208201516040517f48a802dbfec664d2280b2ebd5e5ed95ebbc1c96453297d67cbf0c721884fac9e92610d289290916001600160a01b0392909216825267ffffffffffffffff16602082015260400190565b60405180910390a15b5f83815260106020908152604080832080546001600160e01b031916905592516001600160a01b03168252600f905220805460ff191690556109756119f3565b610d7a33611327565b5f610dba8484848080601f0160208091040260200160405190810160405280939291908181526020018383808284375f920191909152506114a092505050565b335f9081526003602052604081205491925090610dd89083906114ad565b90505f610de982846105c75f6114db565b335f9081526003602052604081205491925090610e069083611a1d565b335f9081526003602052604090208190559050610e2281611529565b610e2c8133611533565b335f908152601b6020526040812054610e4590846114fb565b335f908152601b602052604090208190559050610e6181611529565b610e6b8133611533565b610e7760145484611a4b565b6014819055610e8590611529565b5050505050505050565b610e9833611a81565b335f908152600f60209081526040808320805460ff191660011790556003909152812054610ec7908390611aba565b6040805160018082528183019092529192505f91906020808301908036833701905050905081815f81518110610eff57610eff612a24565b60209081029190910101525f610f2382635c10736760e11b8361096f426064612a11565b60408051808201825233815267ffffffffffffffff96871660208083019182525f9485526010905291909220915182549151909616600160a01b026001600160e01b03199091166001600160a01b03969096169590951794909417909355505050565b6001600160a01b038083165f9081526004602090815260408083209385168352929052908120545b9392505050565b610fea6001600160a01b037f000000000000000000000000000000000000000000000000000000000000000016333084611ae2565b5f60067f00000000000000000000000000000000000000000000000000000000000000006001600160a01b031663313ce5676040518163ffffffff1660e01b8152600401602060405180830381865afa158015611049573d5f803e3d5ffd5b505050506040513d601f19601f8201168201806040525081019061106d9190612a38565b6110779190612a58565b61108290600a612b51565b61108c90836129da565b905067ffffffffffffffff8111156110b75760405163fd7850ad60e01b815260040160405180910390fd5b806110c23382611b51565b5f805482919081906110df90849067ffffffffffffffff16612ba2565b92506101000a81548167ffffffffffffffff021916908367ffffffffffffffff160217905550336001600160a01b03167f20925aeb4fb032b41fb6819a065d482a8e6c281370fc218281522cc25182536b8260405161114e919067ffffffffffffffff91909116815260200190565b60405180910390a2505050565b61116481611ba0565b61118157604051632fa38b3f60e01b815260040160405180910390fd5b50565b6001600160a01b0383166111bb5760405163e602df0560e01b81526001600160a01b03841660048201526024015b60405180910390fd5b6001600160a01b0382166111ed57604051634a1406b160e11b81526001600160a01b03831660048201526024016111b2565b6001600160a01b038084165f90815260046020908152604080832093861683529290522081905561121d81611529565b6112278184611533565b6112318183611533565b505050565b6001600160a01b038084165f9081526004602090815260408083209386168352929052908120545f61126884836114ad565b6001600160a01b0387165f908152600360205260408120549192509061128f9086906114ad565b90505f61129c8284611bab565b90506112bc88886112b7846112b1898c611a1d565b896114e7565b611184565b979650505050505050565b6112d384848484611bb7565b826001600160a01b0316846001600160a01b03167fddf252ad1be2c89b69c2b068fc378daa952ba7f163c4a11628f55a4df523b3ef5f1960405161131991815260200190565b60405180910390a350505050565b6013546001600160a01b0382165f908152601a60205260409020541015611494576001600160a01b0381165f908152601a602052604090205461136b908290611bcc565b6001600160a01b0381165f90815260186020908152604080832054601b9092529091205461139991906114fb565b6001600160a01b0382165f908152601860205260408120919091556113bd906114db565b6001600160a01b0382165f908152601b60209081526040808320939093556018815282822054601c909152919020546113f69190611a1d565b6001600160a01b0382165f908152601860209081526040808320939093556003815282822054601c909152918120549091611430916114fb565b6001600160a01b0383165f908152600360205260409020819055905061145581611529565b61145f8183611533565b6114685f6114db565b6001600160a01b0383165f908152601c6020908152604080832093909355601354601a90915291902055505b61118181601354611bcc565b5f610fae83836005611cbe565b5f826114bf576114bc5f6114db565b92505b816114d0576114cd5f6114db565b91505b610fae83835f611dbc565b5f610518826005611e79565b5f6114f3848484611f17565b949350505050565b5f8261150d5761150a5f6114db565b92505b8161151e5761151b5f6114db565b91505b610fae83835f611fb8565b611181813061202f565b610975828261202f565b5f8261154f5761154c5f6117ca565b92505b816115605761155d5f6114db565b91505b610fae8361156d8461209c565b5f6120a8565b8060175f8282546115849190612a11565b909155505060115460405163095ea7b360e01b81526001600160a01b037f000000000000000000000000000000000000000000000000000000000000000081166004830152602482018490529091169063095ea7b3906044016020604051808303815f875af11580156115f9573d5f803e3d5ffd5b505050506040513d601f19601f8201168201806040525081019061161d9190612b5f565b5060115460405163617ba03760e01b81526001600160a01b039182166004820152602481018390523060448201525f60648201527f00000000000000000000000000000000000000000000000000000000000000009091169063617ba037906084015f604051808303815f87803b158015611696575f80fd5b505af11580156116a8573d5f803e3d5ffd5b505050507f0529f0aa2a260a61fb70bb2b83f56f7e69f13615ad79db76c06ba02590132a63816040516116dd91815260200190565b60405180910390a150565b8060175f8282546116f991906129b0565b9091555050601154604051631a4ca37b60e21b81526001600160a01b039182166004820152602481018390523360448201527f0000000000000000000000000000000000000000000000000000000000000000909116906369328dec906064016020604051808303815f875af1158015611775573d5f803e3d5ffd5b505050506040513d601f19601f820116820180604052508101906117999190612985565b506040518181527f73ce532f480864bd2fccd1bcdbb4c8151f02cd9450c4f3e5b834ef74503abdb2906020016116dd565b5f610518826008611e79565b5f80516020612c90833981519152805460405163155f840160e21b81525f92916001600160a01b03169063557e100490611814908a90600401612bfd565b5f604051808303815f87803b15801561182b575f80fd5b505af115801561183d573d5f803e3d5ffd5b505050505f6118697f93ab6e17f2c461cce6ea5d4ec117e51dda77a64affc2b2c05f8cd440def0e70090565b8054604051634c0d927760e01b81529192506001600160a01b031690634c0d9277906118a1908b908b908b908b908b90600401612c0f565b6020604051808303815f875af11580156118bd573d5f803e3d5ffd5b505050506040513d601f19601f820116820180604052508101906118e19190612985565b98975050505050505050565b7f9b779b17422d0df92223018b32b4d1fa46e071723d6817e2486d003becc55f005c1561192d57604051633ee5aeb560e01b815260040160405180910390fd5b61195a60017f9b779b17422d0df92223018b32b4d1fa46e071723d6817e2486d003becc55f005b9061211f565b565b6001600160a01b0382165f9081526003602052604081205461197e9083612126565b6001600160a01b0384165f90815260036020526040902081905590506119a381611529565b6119ad8184611533565b6040515f1981525f906001600160a01b038516907fddf252ad1be2c89b69c2b068fc378daa952ba7f163c4a11628f55a4df523b3ef9060200160405180910390a3505050565b61195a5f7f9b779b17422d0df92223018b32b4d1fa46e071723d6817e2486d003becc55f00611954565b5f82611a2f57611a2c5f6114db565b92505b81611a4057611a3d5f6114db565b91505b610fae83835f6120a8565b5f82611a5d57611a5a5f6117ca565b92505b81611a6e57611a6b5f6114db565b91505b610fae83611a7b8461209c565b5f611fb8565b6001600160a01b0381165f908152600f602052604090205460ff16156111815760405163adf54df960e01b815260040160405180910390fd5b5f81611acc57611ac95f6114db565b91505b610fae828467ffffffffffffffff16600161214e565b604080516001600160a01b0385811660248301528416604482015260648082018490528251808303909101815260849091019091526020810180517bffffffffffffffffffffffffffffffffffffffffffffffffffffffff166323b872dd60e01b1790526108339085906121c5565b611b5b8282612231565b6040515f1981526001600160a01b038316905f907fddf252ad1be2c89b69c2b068fc378daa952ba7f163c4a11628f55a4df523b3ef9060200160405180910390a35050565b5f6105188233612282565b5f610fae83835f612306565b611bc084611a81565b6108338484848461237d565b6001600160a01b0382165f908152601960209081526040808320548484526015909252822054611bfc91906129b0565b90508015611231576001600160a01b0383165f9081526018602052604081205490611c3c611c3283611c2d866114db565b612496565b6305f5e1006124c4565b6001600160a01b0386165f9081526018602052604081205491925090611c6290836114fb565b6001600160a01b0387165f9081526018602052604090208190559050611c8781611529565b611c918187611533565b5050505f91825250601560209081526040808320546001600160a01b039490941683526019909152902055565b5f80516020612cb0833981519152546040516302e817ff60e41b81525f915f80516020612c90833981519152916001600160a01b0390911690632e817ff090611d159088903390899060f88a901b90600401612c51565b6020604051808303815f875af1158015611d31573d5f803e3d5ffd5b505050506040513d601f19601f82011682018060405250810190611d559190612985565b81546040516346ce4e4960e11b8152600481018390523360248201529193506001600160a01b031690638d9c9c92906044015f604051808303815f87803b158015611d9e575f80fd5b505af1158015611db0573d5f803e3d5ffd5b50505050509392505050565b5f808215611dcf5750600160f81b611dd2565b505f5b5f80516020612cb0833981519152546040516334a6d7b960e11b815260048101879052602481018690526001600160f81b0319831660448201525f80516020612c90833981519152916001600160a01b03169063694daf72906064015b6020604051808303815f875af1158015611e4b573d5f803e3d5ffd5b505050506040513d601f19601f82011682018060405250810190611e6f9190612985565b9695505050505050565b5f80516020612cb083398151915254604051631ce2e8d760e31b81526004810184905260f883901b6001600160f81b03191660248201525f915f80516020612c90833981519152916001600160a01b039091169063e71746b8906044015b6020604051808303815f875af1158015611ef3573d5f803e3d5ffd5b505050506040513d601f19601f820116820180604052508101906114f39190612985565b5f80516020612cb08339815191525460405163cb3b940760e01b81526004810185905260248101849052604481018390525f915f80516020612c90833981519152916001600160a01b039091169063cb3b9407906064015b6020604051808303815f875af1158015611f8b573d5f803e3d5ffd5b505050506040513d601f19601f82011682018060405250810190611faf9190612985565b95945050505050565b5f808215611fcb5750600160f81b611fce565b505f5b5f80516020612cb08339815191525460405163f953e42760e01b815260048101879052602481018690526001600160f81b0319831660448201525f80516020612c90833981519152916001600160a01b03169063f953e42790606401611e2f565b5f5f80516020612c908339815191528054604051631974142760e21b8152600481018690526001600160a01b0385811660248301529293509116906365d0509c906044015f604051808303815f87803b15801561208a575f80fd5b505af1158015610629573d5f803e3d5ffd5b5f6105188260086124ea565b5f8082156120bb5750600160f81b6120be565b505f5b5f80516020612cb083398151915254604051638c14cc2160e01b815260048101879052602481018690526001600160f81b0319831660448201525f80516020612c90833981519152916001600160a01b031690638c14cc2190606401611e2f565b80825d5050565b5f82612138576121355f6114db565b92505b610fae838367ffffffffffffffff1660016120a8565b5f8082156121615750600160f81b612164565b505f5b5f80516020612cb08339815191525460405163052896f160e01b815260048101879052602481018690526001600160f81b0319831660448201525f80516020612c90833981519152916001600160a01b03169063052896f190606401611e2f565b5f8060205f8451602086015f885af1806121e4576040513d5f823e3d81fd5b50505f513d915081156121fb578060011415612208565b6001600160a01b0384163b155b1561083357604051635274afe760e01b81526001600160a01b03851660048201526024016111b2565b6001600160a01b0382165f90815260036020526040812054612253908361254c565b6001600160a01b0384165f908152600360205260409020819055905061227881611529565b6112318184611533565b5f805f80516020612c908339815191528054604051632fd514cd60e11b8152600481018790526001600160a01b038681166024830152929350911690635faa299a90604401602060405180830381865afa1580156122e2573d5f803e3d5ffd5b505050506040513d601f19601f820116820180604052508101906114f39190612b5f565b5f8082156123195750600160f81b61231c565b505f5b5f80516020612cb083398151915254604051630ccd46b160e31b815260048101879052602481018690526001600160f81b0319831660448201525f80516020612c90833981519152916001600160a01b03169063666a358890606401611e2f565b6001600160a01b0384166123af57604051634b637e8f60e11b81526001600160a01b03851660048201526024016111b2565b6001600160a01b0383166123e15760405163ec442f0560e01b81526001600160a01b03841660048201526024016111b2565b5f6123f082846105c75f6114db565b6001600160a01b0385165f908152600360205260408120549192509061241690836114fb565b6001600160a01b0386165f908152600360205260409020819055905061243b81611529565b6124458186611533565b6001600160a01b0386165f908152600360205260408120546124679084611a1d565b6001600160a01b0388165f908152600360205260409020819055905061248c81611529565b6106298188611533565b5f826124a8576124a55f6114db565b92505b816124b9576124b65f6114db565b91505b610fae83835f612574565b5f826124d6576124d35f6114db565b92505b610fae838367ffffffffffffffff166125eb565b5f80516020612cb08339815191525460405163025f346960e51b81526004810184905260f883901b6001600160f81b03191660248201525f915f80516020612c90833981519152916001600160a01b0390911690634be68d2090604401611ed7565b5f8261255e5761255b5f6114db565b92505b610fae838367ffffffffffffffff166001611fb8565b5f8082156125875750600160f81b61258a565b505f5b5f80516020612cb08339815191525460405163816d57d360e01b815260048101879052602481018690526001600160f81b0319831660448201525f80516020612c90833981519152916001600160a01b03169063816d57d390606401611e2f565b5f80516020612cb0833981519152546040516336cdd31b60e01b81526004810184905260248101839052600160f81b604482018190525f9290915f80516020612c90833981519152916001600160a01b0316906336cdd31b90606401611f6f565b5f81518084525f5b8181101561267057602081850181015186830182015201612654565b505f602082860101526020601f19601f83011685010191505092915050565b602081525f610fae602083018461264c565b80356001600160a01b03811681146126b7575f80fd5b919050565b5f80604083850312156126cd575f80fd5b6126d6836126a1565b946020939093013593505050565b5f805f606084860312156126f6575f80fd5b6126ff846126a1565b925061270d602085016126a1565b9150604084013590509250925092565b5f8083601f84011261272d575f80fd5b50813567ffffffffffffffff811115612744575f80fd5b60208301915083602082850101111561275b575f80fd5b9250929050565b5f805f60408486031215612774575f80fd5b83359250602084013567ffffffffffffffff811115612791575f80fd5b61279d8682870161271d565b9497909650939450505050565b5f80604083850312156127bb575f80fd5b50508035926020909101359150565b5f602082840312156127da575f80fd5b610fae826126a1565b5f805f80606085870312156127f6575f80fd5b6127ff856126a1565b935060208501359250604085013567ffffffffffffffff811115612821575f80fd5b61282d8782880161271d565b95989497509550505050565b5f805f805f6080868803121561284d575f80fd5b612856866126a1565b9450612864602087016126a1565b935060408601359250606086013567ffffffffffffffff811115612886575f80fd5b6128928882890161271d565b969995985093965092949392505050565b8015158114611181575f80fd5b5f80604083850312156128c1575f80fd5b8235915060208301356128d3816128a3565b809150509250929050565b5f602082840312156128ee575f80fd5b5035919050565b5f60208284031215612905575f80fd5b813567ffffffffffffffff81168114610fae575f80fd5b5f806040838503121561292d575f80fd5b612936836126a1565b9150612944602084016126a1565b90509250929050565b600181811c9082168061296157607f821691505b60208210810361297f57634e487b7160e01b5f52602260045260245ffd5b50919050565b5f60208284031215612995575f80fd5b5051919050565b634e487b7160e01b5f52601160045260245ffd5b818103818111156105185761051861299c565b80820281158282048414176105185761051861299c565b5f826129f457634e487b7160e01b5f52601260045260245ffd5b500490565b5f60018201612a0a57612a0a61299c565b5060010190565b808201808211156105185761051861299c565b634e487b7160e01b5f52603260045260245ffd5b5f60208284031215612a48575f80fd5b815160ff81168114610fae575f80fd5b60ff82811682821603908111156105185761051861299c565b600181815b80851115612aab57815f1904821115612a9157612a9161299c565b80851615612a9e57918102915b93841c9390800290612a76565b509250929050565b5f82612ac157506001610518565b81612acd57505f610518565b8160018114612ae35760028114612aed57612b09565b6001915050610518565b60ff841115612afe57612afe61299c565b50506001821b610518565b5060208310610133831016604e8410600b8410161715612b2c575081810a610518565b612b368383612a71565b805f1904821115612b4957612b4961299c565b029392505050565b5f610fae60ff841683612ab3565b5f60208284031215612b6f575f80fd5b8151610fae816128a3565b67ffffffffffffffff828116828216039080821115612b9b57612b9b61299c565b5092915050565b67ffffffffffffffff818116838216019080821115612b9b57612b9b61299c565b5f815180845260208085019450602084015f5b83811015612bf257815187529582019590820190600101612bd6565b509495945050505050565b602081525f610fae6020830184612bc3565b60a081525f612c2160a0830188612bc3565b6001600160e01b031996909616602083015250604081019390935260608301919091521515608090910152919050565b8481526001600160a01b0384166020820152608060408201525f612c78608083018561264c565b905060ff60f81b831660608301529594505050505056feed8d60e34876f751cc8b014c560745351147d9de11b9347c854e881b128ea600ed8d60e34876f751cc8b014c560745351147d9de11b9347c854e881b128ea601a164736f6c6343000818000aed8d60e34876f751cc8b014c560745351147d9de11b9347c854e881b128ea600",
  "linkReferences": {},
  "deployedLinkReferences": {}
}