{
  "_format": "hh-sol-artifact-1",
  "contractName": "ConfidentialLendingLayer",
  "sourceName": "contracts/ConfidentialLendingLayer.sol",
  "abi": [
    {
      "inputs": [
        {
          "internalType": "address",
          "name": "_aavePoolAddress",
          "type": "address"
        },
        {
          "internalType": "address",
          "name": "_erc20",
          "type": "address"
        },
        {
          "internalType": "address",
          "name": "_aErc20",
          "type": "address"
        },
        {
          "internalType": "uint256",
          "name": "maxDecryptionDelay_",
          "type": "uint256"
        }
      ],
      "stateMutability": "nonpayable",
      "type": "constructor"
    },
    {
      "inputs": [],
      "name": "AmountTooHigh",
      "type": "error"
    },
    {
      "inputs": [],
      "name": "CannotTransferOrUnwrap",
      "type": "error"
    },
    {
      "inputs": [
        {
          "internalType": "address",
          "name": "spender",
          "type": "address"
        },
        {
          "internalType": "uint256",
          "name": "allowance",
          "type": "uint256"
        },
        {
          "internalType": "uint256",
          "name": "needed",
          "type": "uint256"
        }
      ],
      "name": "ERC20InsufficientAllowance",
      "type": "error"
    },
    {
      "inputs": [
        {
          "internalType": "address",
          "name": "sender",
          "type": "address"
        },
        {
          "internalType": "uint256",
          "name": "balance",
          "type": "uint256"
        },
        {
          "internalType": "uint256",
          "name": "needed",
          "type": "uint256"
        }
      ],
      "name": "ERC20InsufficientBalance",
      "type": "error"
    },
    {
      "inputs": [
        {
          "internalType": "address",
          "name": "approver",
          "type": "address"
        }
      ],
      "name": "ERC20InvalidApprover",
      "type": "error"
    },
    {
      "inputs": [
        {
          "internalType": "address",
          "name": "receiver",
          "type": "address"
        }
      ],
      "name": "ERC20InvalidReceiver",
      "type": "error"
    },
    {
      "inputs": [
        {
          "internalType": "address",
          "name": "sender",
          "type": "address"
        }
      ],
      "name": "ERC20InvalidSender",
      "type": "error"
    },
    {
      "inputs": [
        {
          "internalType": "address",
          "name": "spender",
          "type": "address"
        }
      ],
      "name": "ERC20InvalidSpender",
      "type": "error"
    },
    {
      "inputs": [],
      "name": "MaxDecryptionDelayTooHigh",
      "type": "error"
    },
    {
      "inputs": [],
      "name": "ReentrancyGuardReentrantCall",
      "type": "error"
    },
    {
      "inputs": [
        {
          "internalType": "address",
          "name": "token",
          "type": "address"
        }
      ],
      "name": "SafeERC20FailedOperation",
      "type": "error"
    },
    {
      "inputs": [],
      "name": "TFHESenderNotAllowed",
      "type": "error"
    },
    {
      "inputs": [],
      "name": "TooEarlyForNextRound",
      "type": "error"
    },
    {
      "anonymous": false,
      "inputs": [
        {
          "indexed": true,
          "internalType": "address",
          "name": "owner",
          "type": "address"
        },
        {
          "indexed": true,
          "internalType": "address",
          "name": "spender",
          "type": "address"
        },
        {
          "indexed": false,
          "internalType": "uint256",
          "name": "placeholder",
          "type": "uint256"
        }
      ],
      "name": "Approval",
      "type": "event"
    },
    {
      "anonymous": false,
      "inputs": [
        {
          "indexed": false,
          "internalType": "uint256",
          "name": "amount",
          "type": "uint256"
        }
      ],
      "name": "LiquiditySupplied",
      "type": "event"
    },
    {
      "anonymous": false,
      "inputs": [
        {
          "indexed": false,
          "internalType": "uint256",
          "name": "amount",
          "type": "uint256"
        }
      ],
      "name": "LiquidityWithdrawn",
      "type": "event"
    },
    {
      "anonymous": false,
      "inputs": [
        {
          "indexed": true,
          "internalType": "address",
          "name": "from",
          "type": "address"
        },
        {
          "indexed": true,
          "internalType": "address",
          "name": "to",
          "type": "address"
        },
        {
          "indexed": false,
          "internalType": "uint256",
          "name": "transferId",
          "type": "uint256"
        }
      ],
      "name": "Transfer",
      "type": "event"
    },
    {
      "anonymous": false,
      "inputs": [
        {
          "indexed": true,
          "internalType": "address",
          "name": "account",
          "type": "address"
        },
        {
          "indexed": false,
          "internalType": "uint64",
          "name": "amount",
          "type": "uint64"
        }
      ],
      "name": "Unwrap",
      "type": "event"
    },
    {
      "anonymous": false,
      "inputs": [
        {
          "indexed": false,
          "internalType": "address",
          "name": "account",
          "type": "address"
        },
        {
          "indexed": false,
          "internalType": "uint64",
          "name": "amount",
          "type": "uint64"
        }
      ],
      "name": "UnwrapFailNotEnoughBalance",
      "type": "event"
    },
    {
      "anonymous": false,
      "inputs": [
        {
          "indexed": false,
          "internalType": "address",
          "name": "account",
          "type": "address"
        },
        {
          "indexed": false,
          "internalType": "uint64",
          "name": "amount",
          "type": "uint64"
        }
      ],
      "name": "UnwrapFailTransferFail",
      "type": "event"
    },
    {
      "anonymous": false,
      "inputs": [
        {
          "indexed": true,
          "internalType": "address",
          "name": "account",
          "type": "address"
        },
        {
          "indexed": false,
          "internalType": "uint64",
          "name": "amount",
          "type": "uint64"
        }
      ],
      "name": "Wrap",
      "type": "event"
    },
    {
      "inputs": [],
      "name": "AAVE_POOL_ADDRESS",
      "outputs": [
        {
          "internalType": "address",
          "name": "",
          "type": "address"
        }
      ],
      "stateMutability": "view",
      "type": "function"
    },
    {
      "inputs": [],
      "name": "ERC20_TOKEN",
      "outputs": [
        {
          "internalType": "contract IERC20Metadata",
          "name": "",
          "type": "address"
        }
      ],
      "stateMutability": "view",
      "type": "function"
    },
    {
      "inputs": [
        {
          "internalType": "address",
          "name": "owner",
          "type": "address"
        },
        {
          "internalType": "address",
          "name": "spender",
          "type": "address"
        }
      ],
      "name": "allowance",
      "outputs": [
        {
          "internalType": "euint64",
          "name": "",
          "type": "uint256"
        }
      ],
      "stateMutability": "view",
      "type": "function"
    },
    {
      "inputs": [
        {
          "internalType": "address",
          "name": "spender",
          "type": "address"
        },
        {
          "internalType": "euint64",
          "name": "amount",
          "type": "uint256"
        }
      ],
      "name": "approve",
      "outputs": [
        {
          "internalType": "bool",
          "name": "",
          "type": "bool"
        }
      ],
      "stateMutability": "nonpayable",
      "type": "function"
    },
    {
      "inputs": [
        {
          "internalType": "address",
          "name": "spender",
          "type": "address"
        },
        {
          "internalType": "einput",
          "name": "encryptedAmount",
          "type": "bytes32"
        },
        {
          "internalType": "bytes",
          "name": "inputProof",
          "type": "bytes"
        }
      ],
      "name": "approve",
      "outputs": [
        {
          "internalType": "bool",
          "name": "",
          "type": "bool"
        }
      ],
      "stateMutability": "nonpayable",
      "type": "function"
    },
    {
      "inputs": [
        {
          "internalType": "address",
          "name": "account",
          "type": "address"
        }
      ],
      "name": "balanceOf",
      "outputs": [
        {
          "internalType": "euint64",
          "name": "",
          "type": "uint256"
        }
      ],
      "stateMutability": "view",
      "type": "function"
    },
    {
      "inputs": [],
      "name": "callNextRound",
      "outputs": [],
      "stateMutability": "nonpayable",
      "type": "function"
    },
    {
      "inputs": [
        {
          "internalType": "uint256",
          "name": "requestId",
          "type": "uint256"
        },
        {
          "internalType": "bool",
          "name": "canUnwrap",
          "type": "bool"
        }
      ],
      "name": "callbackUnwrap",
      "outputs": [],
      "stateMutability": "nonpayable",
      "type": "function"
    },
    {
      "inputs": [],
      "name": "decimals",
      "outputs": [
        {
          "internalType": "uint8",
          "name": "",
          "type": "uint8"
        }
      ],
      "stateMutability": "view",
      "type": "function"
    },
    {
      "inputs": [
        {
          "internalType": "uint256",
          "name": "",
          "type": "uint256"
        },
        {
          "internalType": "uint256",
          "name": "roundAmount",
          "type": "uint256"
        }
      ],
      "name": "executeRound",
      "outputs": [],
      "stateMutability": "nonpayable",
      "type": "function"
    },
    {
      "inputs": [
        {
          "internalType": "address",
          "name": "account",
          "type": "address"
        }
      ],
      "name": "isAccountRestricted",
      "outputs": [
        {
          "internalType": "bool",
          "name": "isRestricted",
          "type": "bool"
        }
      ],
      "stateMutability": "view",
      "type": "function"
    },
    {
      "inputs": [],
      "name": "lastUpdateTime",
      "outputs": [
        {
          "internalType": "uint256",
          "name": "",
          "type": "uint256"
        }
      ],
      "stateMutability": "view",
      "type": "function"
    },
    {
      "inputs": [
        {
          "internalType": "einput",
          "name": "eRequestedAmount",
          "type": "bytes32"
        },
        {
          "internalType": "bytes",
          "name": "inputProof",
          "type": "bytes"
        }
      ],
      "name": "lendToAave",
      "outputs": [],
      "stateMutability": "nonpayable",
      "type": "function"
    },
    {
      "inputs": [
        {
          "internalType": "address",
          "name": "account",
          "type": "address"
        }
      ],
      "name": "lendingBalanceOf",
      "outputs": [
        {
          "internalType": "euint64",
          "name": "",
          "type": "uint256"
        }
      ],
      "stateMutability": "view",
      "type": "function"
    },
    {
      "inputs": [],
      "name": "name",
      "outputs": [
        {
          "internalType": "string",
          "name": "",
          "type": "string"
        }
      ],
      "stateMutability": "view",
      "type": "function"
    },
    {
      "inputs": [],
      "name": "symbol",
      "outputs": [
        {
          "internalType": "string",
          "name": "",
          "type": "string"
        }
      ],
      "stateMutability": "view",
      "type": "function"
    },
    {
      "inputs": [],
      "name": "totalSupply",
      "outputs": [
        {
          "internalType": "uint64",
          "name": "",
          "type": "uint64"
        }
      ],
      "stateMutability": "view",
      "type": "function"
    },
    {
      "inputs": [
        {
          "internalType": "address",
          "name": "to",
          "type": "address"
        },
        {
          "internalType": "einput",
          "name": "encryptedAmount",
          "type": "bytes32"
        },
        {
          "internalType": "bytes",
          "name": "inputProof",
          "type": "bytes"
        }
      ],
      "name": "transfer",
      "outputs": [
        {
          "internalType": "bool",
          "name": "",
          "type": "bool"
        }
      ],
      "stateMutability": "nonpayable",
      "type": "function"
    },
    {
      "inputs": [
        {
          "internalType": "address",
          "name": "to",
          "type": "address"
        },
        {
          "internalType": "euint64",
          "name": "amount",
          "type": "uint256"
        }
      ],
      "name": "transfer",
      "outputs": [
        {
          "internalType": "bool",
          "name": "",
          "type": "bool"
        }
      ],
      "stateMutability": "nonpayable",
      "type": "function"
    },
    {
      "inputs": [
        {
          "internalType": "address",
          "name": "from",
          "type": "address"
        },
        {
          "internalType": "address",
          "name": "to",
          "type": "address"
        },
        {
          "internalType": "euint64",
          "name": "amount",
          "type": "uint256"
        }
      ],
      "name": "transferFrom",
      "outputs": [
        {
          "internalType": "bool",
          "name": "",
          "type": "bool"
        }
      ],
      "stateMutability": "nonpayable",
      "type": "function"
    },
    {
      "inputs": [
        {
          "internalType": "address",
          "name": "from",
          "type": "address"
        },
        {
          "internalType": "address",
          "name": "to",
          "type": "address"
        },
        {
          "internalType": "einput",
          "name": "encryptedAmount",
          "type": "bytes32"
        },
        {
          "internalType": "bytes",
          "name": "inputProof",
          "type": "bytes"
        }
      ],
      "name": "transferFrom",
      "outputs": [
        {
          "internalType": "bool",
          "name": "",
          "type": "bool"
        }
      ],
      "stateMutability": "nonpayable",
      "type": "function"
    },
    {
      "inputs": [
        {
          "internalType": "uint64",
          "name": "amount",
          "type": "uint64"
        }
      ],
      "name": "unwrap",
      "outputs": [],
      "stateMutability": "nonpayable",
      "type": "function"
    },
    {
      "inputs": [
        {
          "internalType": "uint256",
          "name": "requestId",
          "type": "uint256"
        }
      ],
      "name": "unwrapRequests",
      "outputs": [
        {
          "internalType": "address",
          "name": "account",
          "type": "address"
        },
        {
          "internalType": "uint64",
          "name": "amount",
          "type": "uint64"
        }
      ],
      "stateMutability": "view",
      "type": "function"
    },
    {
      "inputs": [
        {
          "internalType": "einput",
          "name": "eRequestedAmount",
          "type": "bytes32"
        },
        {
          "internalType": "bytes",
          "name": "inputProof",
          "type": "bytes"
        }
      ],
      "name": "withdrawFromAave",
      "outputs": [],
      "stateMutability": "nonpayable",
      "type": "function"
    },
    {
      "inputs": [
        {
          "internalType": "uint256",
          "name": "amount",
          "type": "uint256"
        }
      ],
      "name": "wrap",
      "outputs": [],
      "stateMutability": "nonpayable",
      "type": "function"
    }
  ],
  "bytecode": "0x60c060405234801562000010575f80fd5b506040516200359d3803806200359d8339810160408190526200003391620004df565b8281816001600160a01b03166306fdde036040518163ffffffff1660e01b81526004015f60405180830381865afa15801562000071573d5f803e3d5ffd5b505050506040513d5f823e601f3d908101601f191682016040526200009a919081019062000566565b604051602001620000ac919062000619565b604051602081830303815290604052826001600160a01b03166395d89b416040518163ffffffff1660e01b81526004015f60405180830381865afa158015620000f7573d5f803e3d5ffd5b505050506040513d5f823e601f3d908101601f1916820160405262000120919081019062000566565b6040516020016200013291906200064f565b60408051601f19818403018152608080840183525f80855260208086018290528585018290526060958601919091528351918201845273fee8407e2f5e3ee68ad77cae98c434e637f516e580835273687408ab54661ba0b4aef3a44156c616c6955e0791830182905273fb03be574d14c256d56f09a198b586bdfc0a9de2948301859052739d6891a6240d6130c54ae243d8005063d05fe14b929095018290525f805160206200357d83398151915280546001600160a01b031990811690961790557fed8d60e34876f751cc8b014c560745351147d9de11b9347c854e881b128ea6018054861690911790557fed8d60e34876f751cc8b014c560745351147d9de11b9347c854e881b128ea602805485169093179092557fed8d60e34876f751cc8b014c560745351147d9de11b9347c854e881b128ea60380549093169091179091557f93ab6e17f2c461cce6ea5d4ec117e51dda77a64affc2b2c05f8cd440def0e70080546001600160a01b0319167333347831500f1e73f0cccbb95c9f86b94d7b11231790556001620002c88382620006ff565b506002620002d78282620006ff565b5050506001600160a01b038216608052620151808111156200030c5760405163049587e360e41b815260040160405180910390fd5b50506001600160a01b0384811660a052601180546001600160a01b031990811686841617909155601280549091169184169190911790556200035667800000000000000062000373565b6014819055620003669062000387565b50505050620007e3565b50565b5f6200038182600862000393565b92915050565b6200037081306200044a565b5f805f805160206200357d8339815191526001810154604051631ce2e8d760e31b8152600481018790527fff0000000000000000000000000000000000000000000000000000000000000060f887901b1660248201529192506001600160a01b03169063e71746b8906044016020604051808303815f875af11580156200041c573d5f803e3d5ffd5b505050506040513d601f19601f82011682018060405250810190620004429190620007cb565b949350505050565b5f5f805160206200357d8339815191528054604051631974142760e21b8152600481018690526001600160a01b0385811660248301529293509116906365d0509c906044015f604051808303815f87803b158015620004a7575f80fd5b505af1158015620004ba573d5f803e3d5ffd5b50505050505050565b80516001600160a01b0381168114620004da575f80fd5b919050565b5f805f8060808587031215620004f3575f80fd5b620004fe85620004c3565b93506200050e60208601620004c3565b92506200051e60408601620004c3565b6060959095015193969295505050565b634e487b7160e01b5f52604160045260245ffd5b5f5b838110156200055e57818101518382015260200162000544565b50505f910152565b5f6020828403121562000577575f80fd5b81516001600160401b03808211156200058e575f80fd5b818401915084601f830112620005a2575f80fd5b815181811115620005b757620005b76200052e565b604051601f8201601f19908116603f01168101908382118183101715620005e257620005e26200052e565b81604052828152876020848701011115620005fb575f80fd5b6200060e83602083016020880162000542565b979650505050505050565b6c021b7b73334b232b73a34b0b61609d1b81525f82516200064281600d85016020870162000542565b91909101600d0192915050565b5f82516200066281846020870162000542565b606360f81b920191825250600101919050565b600181811c908216806200068a57607f821691505b602082108103620006a957634e487b7160e01b5f52602260045260245ffd5b50919050565b601f821115620006fa57805f5260205f20601f840160051c81016020851015620006d65750805b601f840160051c820191505b81811015620006f7575f8155600101620006e2565b50505b505050565b81516001600160401b038111156200071b576200071b6200052e565b62000733816200072c845462000675565b84620006af565b602080601f83116001811462000769575f8415620007515750858301515b5f19600386901b1c1916600185901b178555620007c3565b5f85815260208120601f198616915b82811015620007995788860151825594840194600190910190840162000778565b5085821015620007b757878501515f19600388901b60f8161c191681555b505060018460011b0185555b505050505050565b5f60208284031215620007dc575f80fd5b5051919050565b60805160a051612d47620008365f395f818161026c01528181611517015281816115c701526116a101525f818161042f01528181610aaf01528181610b8601528181610f130152610f400152612d475ff3fe608060405234801561000f575f80fd5b506004361061019a575f3560e01c80639a094352116100e8578063c8f33c9111610093578063dd62ed3e1161006e578063dd62ed3e146103e2578063e6e09505146103f5578063ea598cb014610417578063efc4c6311461042a575f80fd5b8063c8f33c9114610363578063d99c2a721461036c578063dc412e83146103cf575f80fd5b8063b32c1001116100c3578063b32c10011461032a578063b820e6ce1461033d578063c7da2dac14610350575f80fd5b80639a094352146102fc578063a1fe84f31461030f578063a9059cbb14610317575f80fd5b80633d0e902f1161014857806370a082311161012357806370a08231146102b95780637b7e0a5a146102e157806395d89b41146102f4575f80fd5b80633d0e902f146102525780635466e24d14610267578063576a257e146102a6575f80fd5b806323b872dd1161017857806323b872dd146101fa5780632787d0321461020d578063313ce56714610243575f80fd5b806306fdde031461019e578063095ea7b3146101bc57806318160ddd146101df575b5f80fd5b6101a6610451565b6040516101b391906126fa565b60405180910390f35b6101cf6101ca366004612727565b6104e1565b60405190151581526020016101b3565b5f5460405167ffffffffffffffff90911681526020016101b3565b6101cf61020836600461274f565b610551565b61023561021b366004612788565b6001600160a01b03165f9081526018602052604090205490565b6040519081526020016101b3565b604051600681526020016101b3565b6102656102603660046127e6565b610582565b005b61028e7f000000000000000000000000000000000000000000000000000000000000000081565b6040516001600160a01b0390911681526020016101b3565b6102656102b436600461282e565b610665565b6102356102c7366004612788565b6001600160a01b03165f9081526003602052604090205490565b6101cf6102ef36600461284e565b61086c565b6101a66108b0565b6101cf61030a3660046128a4565b6108bf565b610265610911565b6101cf610325366004612727565b6109ac565b6101cf61033836600461284e565b6109e8565b61026561034b36600461291b565b610a2c565b61026561035e3660046127e6565b610da4565b61023560165481565b6103a761037a366004612949565b60106020525f90815260409020546001600160a01b03811690600160a01b900467ffffffffffffffff1682565b604080516001600160a01b03909316835267ffffffffffffffff9091166020830152016101b3565b6102656103dd366004612960565b610ec2565b6102356103f0366004612987565b610ed7565b6101cf610403366004612788565b600f6020525f908152604090205460ff1681565b610265610425366004612949565b610f06565b61028e7f000000000000000000000000000000000000000000000000000000000000000081565b606060018054610460906129b8565b80601f016020809104026020016040519081016040528092919081815260200182805461048c906129b8565b80156104d75780601f106104ae576101008083540402835291602001916104d7565b820191905f5260205f20905b8154815290600101906020018083116104ba57829003601f168201915b5050505050905090565b5f6104eb826110ac565b336104f78185856110d2565b836001600160a01b0316816001600160a01b03167f8c5be1e5ebec7d5bd14f71427d1e84f3dd0314c0f7b2291e5b200ac8c7c3b9255f1960405161053d91815260200190565b60405180910390a360019150505b92915050565b5f61055b826110ac565b335f610568868386611184565b905061057686868684611215565b50600195945050505050565b61058b33611275565b5f6105cb8484848080601f0160208091040260200160405190810160405280939291908181526020018383808284375f9201919091525061141492505050565b335f90815260186020526040812054919250906105e9908390611421565b90505f6105ff82846105fa5f61144f565b61145b565b335f908152601c60205260408120549192509061061c908361146f565b335f908152601c6020526040902081905590506106388161149d565b61064281336114a7565b61064e601454836114b1565b601481905561065c9061149d565b50505050505050565b7f93ab6e17f2c461cce6ea5d4ec117e51dda77a64affc2b2c05f8cd440def0e700546001600160a01b0316331461069a575f80fd5b6017546012546040516370a0823160e01b81523060048201525f92916001600160a01b0316906370a0823190602401602060405180830381865afa1580156106e4573d5f803e3d5ffd5b505050506040513d601f19601f8201168201806040525081019061070891906129f0565b6107129190612a1b565b90505f80601754111561073d576017546107306305f5e10084612a2e565b61073a9190612a45565b90505b60138054905f61074c83612a64565b91905055508060155f60016013546107649190612a1b565b81526020019081526020015f205461077c9190612a7c565b6013545f90815260156020526040908190209190915560125490516370a0823160e01b81523060048201526001600160a01b03909116906370a0823190602401602060405180830381865afa1580156107d7573d5f803e3d5ffd5b505050506040513d601f19601f820116820180604052508101906107fb91906129f0565b60175567800000000000000083111561082d5761082861082367800000000000000085612a1b565b6114e7565b610847565b61084761084284678000000000000000612a1b565b61165c565b61085867800000000000000061173e565b60148190556108669061149d565b50505050565b5f610576856103258686868080601f0160208091040260200160405190810160405280939291908181526020018383808284375f9201919091525061141492505050565b606060028054610460906129b8565b5f61090486866102088787878080601f0160208091040260200160405190810160405280939291908181526020018383808284375f9201919091525061141492505050565b5060019695505050505050565b60165461092090610708612a7c565b421161093f576040516338e6cf8f60e11b815260040160405180910390fd5b426016556040805160018082528183019092525f916020808301908036833701905050905061096d60145490565b815f8151811061097f5761097f612a8f565b60209081029190910101526109a881632bb512bf60e11b5f6109a2426064612a7c565b5f61174a565b5050565b5f6109b6826110ac565b335f908152600360205260408120546109d0908490611421565b90506109de33858584611215565b5060019392505050565b5f610576856101ca8686868080601f0160208091040260200160405190810160405280939291908181526020018383808284375f9201919091525061141492505050565b610a34611861565b7f93ab6e17f2c461cce6ea5d4ec117e51dda77a64affc2b2c05f8cd440def0e700546001600160a01b03163314610a69575f80fd5b5f828152601060209081526040918290208251808401909352546001600160a01b0381168352600160a01b900467ffffffffffffffff16908201528115610d06575f60067f00000000000000000000000000000000000000000000000000000000000000006001600160a01b031663313ce5676040518163ffffffff1660e01b8152600401602060405180830381865afa158015610b09573d5f803e3d5ffd5b505050506040513d601f19601f82011682018060405250810190610b2d9190612aa3565b610b379190612ac3565b610b4290600a612bbc565b826020015167ffffffffffffffff16610b5b9190612a2e565b825160405163a9059cbb60e01b81526001600160a01b039182166004820152602481018390529192507f0000000000000000000000000000000000000000000000000000000000000000169063a9059cbb906044016020604051808303815f875af1925050508015610bea575060408051601f3d908101601f19168201909252610be791810190612bca565b60015b610c5057815160208301516040517f936799e3a22b0bdb5ef05df98e796a4835cff5297075fdb001414e53f5e302a792610c439290916001600160a01b0392909216825267ffffffffffffffff16602082015260400190565b60405180910390a1610d00565b50610c62825f015183602001516118d0565b60208201515f80548190610c8190849067ffffffffffffffff16612be5565b92506101000a81548167ffffffffffffffff021916908367ffffffffffffffff160217905550815f01516001600160a01b03167f0bbd89dc609b4c985f78b075c0f9271cf66dd34e7e08bb2437a103a6ba9a8db78360200151604051610cf7919067ffffffffffffffff91909116815260200190565b60405180910390a25b50610d64565b805160208201516040517f48a802dbfec664d2280b2ebd5e5ed95ebbc1c96453297d67cbf0c721884fac9e92610d5b9290916001600160a01b0392909216825267ffffffffffffffff16602082015260400190565b60405180910390a15b5f83815260106020908152604080832080546001600160e01b031916905592516001600160a01b03168252600f905220805460ff191690556109a8611967565b610dad33611275565b5f610ded8484848080601f0160208091040260200160405190810160405280939291908181526020018383808284375f9201919091525061141492505050565b335f9081526003602052604081205491925090610e0b908390611421565b90505f610e1c82846105fa5f61144f565b335f9081526003602052604081205491925090610e399083611991565b335f9081526003602052604090208190559050610e558161149d565b610e5f81336114a7565b335f908152601b6020526040812054610e78908461146f565b335f908152601b602052604090208190559050610e948161149d565b610e9e81336114a7565b610eaa601454846119bf565b6014819055610eb89061149d565b5050505050505050565b610ecb33611275565b610ed4816119f5565b50565b6001600160a01b038083165f9081526004602090815260408083209385168352929052908120545b9392505050565b610f3b6001600160a01b037f000000000000000000000000000000000000000000000000000000000000000016333084611aec565b5f60067f00000000000000000000000000000000000000000000000000000000000000006001600160a01b031663313ce5676040518163ffffffff1660e01b8152600401602060405180830381865afa158015610f9a573d5f803e3d5ffd5b505050506040513d601f19601f82011682018060405250810190610fbe9190612aa3565b610fc89190612ac3565b610fd390600a612bbc565b610fdd9083612a45565b905067ffffffffffffffff8111156110085760405163fd7850ad60e01b815260040160405180910390fd5b806110133382611b5b565b5f8054829190819061103090849067ffffffffffffffff16612c0d565b92506101000a81548167ffffffffffffffff021916908367ffffffffffffffff160217905550336001600160a01b03167f20925aeb4fb032b41fb6819a065d482a8e6c281370fc218281522cc25182536b8260405161109f919067ffffffffffffffff91909116815260200190565b60405180910390a2505050565b6110b581611baa565b610ed457604051632fa38b3f60e01b815260040160405180910390fd5b6001600160a01b0383166111095760405163e602df0560e01b81526001600160a01b03841660048201526024015b60405180910390fd5b6001600160a01b03821661113b57604051634a1406b160e11b81526001600160a01b0383166004820152602401611100565b6001600160a01b038084165f90815260046020908152604080832093861683529290522081905561116b8161149d565b61117581846114a7565b61117f81836114a7565b505050565b6001600160a01b038084165f9081526004602090815260408083209386168352929052908120545f6111b68483611421565b6001600160a01b0387165f90815260036020526040812054919250906111dd908690611421565b90505f6111ea8284611bb5565b905061120a8888611205846111ff898c611991565b8961145b565b6110d2565b979650505050505050565b61122184848484611bc1565b826001600160a01b0316846001600160a01b03167fddf252ad1be2c89b69c2b068fc378daa952ba7f163c4a11628f55a4df523b3ef5f1960405161126791815260200190565b60405180910390a350505050565b6013546001600160a01b0382165f908152601a60205260409020541015611408576001600160a01b0381165f908152601a60205260409020546112b9908290611bd6565b6001600160a01b0381165f90815260186020908152604080832054601b9092528220546112e6919061146f565b6001600160a01b0383165f908152601c602052604090205490915061130c908290611991565b6001600160a01b0383165f90815260186020526040902081905590506113318161149d565b61133b81836114a7565b6001600160a01b0382165f90815260036020908152604080832054601c909252822054611368919061146f565b6001600160a01b0384165f908152600360205260409020819055905061138d8161149d565b61139781846114a7565b5f6113a15f61144f565b90506113ac8161149d565b6001600160a01b0384165f908152601b602052604081208290556113cf8161144f565b90506113da8161149d565b6001600160a01b0385165f908152601c6020908152604080832093909355601354601a909152919020555050505b610ed481601354611bd6565b5f610eff83836005611cc8565b5f82611433576114305f61144f565b92505b81611444576114415f61144f565b91505b610eff83835f611dc6565b5f61054b826005611e83565b5f611467848484611f21565b949350505050565b5f826114815761147e5f61144f565b92505b816114925761148f5f61144f565b91505b610eff83835f611fc2565b610ed48130612039565b6109a88282612039565b5f826114c3576114c05f61173e565b92505b816114d4576114d15f61144f565b91505b610eff836114e1846120a6565b5f6120b2565b8060175f8282546114f89190612a7c565b909155505060115460405163095ea7b360e01b81526001600160a01b037f000000000000000000000000000000000000000000000000000000000000000081166004830152602482018490529091169063095ea7b3906044016020604051808303815f875af115801561156d573d5f803e3d5ffd5b505050506040513d601f19601f820116820180604052508101906115919190612bca565b5060115460405163617ba03760e01b81526001600160a01b039182166004820152602481018390523060448201525f60648201527f00000000000000000000000000000000000000000000000000000000000000009091169063617ba037906084015f604051808303815f87803b15801561160a575f80fd5b505af115801561161c573d5f803e3d5ffd5b505050507f0529f0aa2a260a61fb70bb2b83f56f7e69f13615ad79db76c06ba02590132a638160405161165191815260200190565b60405180910390a150565b8060175f82825461166d9190612a1b565b9091555050601154604051631a4ca37b60e21b81526001600160a01b039182166004820152602481018390523060448201527f0000000000000000000000000000000000000000000000000000000000000000909116906369328dec906064016020604051808303815f875af11580156116e9573d5f803e3d5ffd5b505050506040513d601f19601f8201168201806040525081019061170d91906129f0565b506040518181527f73ce532f480864bd2fccd1bcdbb4c8151f02cd9450c4f3e5b834ef74503abdb290602001611651565b5f61054b826008611e83565b5f80516020612cfb833981519152805460405163155f840160e21b81525f92916001600160a01b03169063557e100490611788908a90600401612c68565b5f604051808303815f87803b15801561179f575f80fd5b505af11580156117b1573d5f803e3d5ffd5b505050505f6117dd7f93ab6e17f2c461cce6ea5d4ec117e51dda77a64affc2b2c05f8cd440def0e70090565b8054604051634c0d927760e01b81529192506001600160a01b031690634c0d927790611815908b908b908b908b908b90600401612c7a565b6020604051808303815f875af1158015611831573d5f803e3d5ffd5b505050506040513d601f19601f8201168201806040525081019061185591906129f0565b98975050505050505050565b7f9b779b17422d0df92223018b32b4d1fa46e071723d6817e2486d003becc55f005c156118a157604051633ee5aeb560e01b815260040160405180910390fd5b6118ce60017f9b779b17422d0df92223018b32b4d1fa46e071723d6817e2486d003becc55f005b90612129565b565b6001600160a01b0382165f908152600360205260408120546118f29083612130565b6001600160a01b0384165f90815260036020526040902081905590506119178161149d565b61192181846114a7565b6040515f1981525f906001600160a01b038516907fddf252ad1be2c89b69c2b068fc378daa952ba7f163c4a11628f55a4df523b3ef9060200160405180910390a3505050565b6118ce5f7f9b779b17422d0df92223018b32b4d1fa46e071723d6817e2486d003becc55f006118c8565b5f826119a3576119a05f61144f565b92505b816119b4576119b15f61144f565b91505b610eff83835f6120b2565b5f826119d1576119ce5f61173e565b92505b816119e2576119df5f61144f565b91505b610eff836119ef846120a6565b5f611fc2565b6119fe33612158565b335f908152600f60209081526040808320805460ff191660011790556003909152812054611a2d908390612191565b6040805160018082528183019092529192505f91906020808301908036833701905050905081815f81518110611a6557611a65612a8f565b60209081029190910101525f611a8982635c10736760e11b836109a2426064612a7c565b60408051808201825233815267ffffffffffffffff96871660208083019182525f9485526010905291909220915182549151909616600160a01b026001600160e01b03199091166001600160a01b03969096169590951794909417909355505050565b604080516001600160a01b0385811660248301528416604482015260648082018490528251808303909101815260849091019091526020810180517bffffffffffffffffffffffffffffffffffffffffffffffffffffffff166323b872dd60e01b1790526108669085906121b9565b611b658282612225565b6040515f1981526001600160a01b038316905f907fddf252ad1be2c89b69c2b068fc378daa952ba7f163c4a11628f55a4df523b3ef9060200160405180910390a35050565b5f61054b8233612276565b5f610eff83835f6122fa565b611bca84612158565b61086684848484612371565b6001600160a01b0382165f908152601960209081526040808320548484526015909252822054611c069190612a1b565b9050801561117f576001600160a01b0383165f9081526018602052604081205490611c46611c3c83611c378661144f565b61248a565b6305f5e1006124b8565b6001600160a01b0386165f9081526018602052604081205491925090611c6c908361146f565b6001600160a01b0387165f9081526018602052604090208190559050611c918161149d565b611c9b81876114a7565b5050505f91825250601560209081526040808320546001600160a01b039490941683526019909152902055565b5f80516020612d1b833981519152546040516302e817ff60e41b81525f915f80516020612cfb833981519152916001600160a01b0390911690632e817ff090611d1f9088903390899060f88a901b90600401612cbc565b6020604051808303815f875af1158015611d3b573d5f803e3d5ffd5b505050506040513d601f19601f82011682018060405250810190611d5f91906129f0565b81546040516346ce4e4960e11b8152600481018390523360248201529193506001600160a01b031690638d9c9c92906044015f604051808303815f87803b158015611da8575f80fd5b505af1158015611dba573d5f803e3d5ffd5b50505050509392505050565b5f808215611dd95750600160f81b611ddc565b505f5b5f80516020612d1b833981519152546040516334a6d7b960e11b815260048101879052602481018690526001600160f81b0319831660448201525f80516020612cfb833981519152916001600160a01b03169063694daf72906064015b6020604051808303815f875af1158015611e55573d5f803e3d5ffd5b505050506040513d601f19601f82011682018060405250810190611e7991906129f0565b9695505050505050565b5f80516020612d1b83398151915254604051631ce2e8d760e31b81526004810184905260f883901b6001600160f81b03191660248201525f915f80516020612cfb833981519152916001600160a01b039091169063e71746b8906044015b6020604051808303815f875af1158015611efd573d5f803e3d5ffd5b505050506040513d601f19601f8201168201806040525081019061146791906129f0565b5f80516020612d1b8339815191525460405163cb3b940760e01b81526004810185905260248101849052604481018390525f915f80516020612cfb833981519152916001600160a01b039091169063cb3b9407906064015b6020604051808303815f875af1158015611f95573d5f803e3d5ffd5b505050506040513d601f19601f82011682018060405250810190611fb991906129f0565b95945050505050565b5f808215611fd55750600160f81b611fd8565b505f5b5f80516020612d1b8339815191525460405163f953e42760e01b815260048101879052602481018690526001600160f81b0319831660448201525f80516020612cfb833981519152916001600160a01b03169063f953e42790606401611e39565b5f5f80516020612cfb8339815191528054604051631974142760e21b8152600481018690526001600160a01b0385811660248301529293509116906365d0509c906044015f604051808303815f87803b158015612094575f80fd5b505af115801561065c573d5f803e3d5ffd5b5f61054b8260086124de565b5f8082156120c55750600160f81b6120c8565b505f5b5f80516020612d1b83398151915254604051638c14cc2160e01b815260048101879052602481018690526001600160f81b0319831660448201525f80516020612cfb833981519152916001600160a01b031690638c14cc2190606401611e39565b80825d5050565b5f826121425761213f5f61144f565b92505b610eff838367ffffffffffffffff1660016120b2565b6001600160a01b0381165f908152600f602052604090205460ff1615610ed45760405163adf54df960e01b815260040160405180910390fd5b5f816121a3576121a05f61144f565b91505b610eff828467ffffffffffffffff166001612540565b5f8060205f8451602086015f885af1806121d8576040513d5f823e3d81fd5b50505f513d915081156121ef5780600114156121fc565b6001600160a01b0384163b155b1561086657604051635274afe760e01b81526001600160a01b0385166004820152602401611100565b6001600160a01b0382165f9081526003602052604081205461224790836125b7565b6001600160a01b0384165f908152600360205260409020819055905061226c8161149d565b61117f81846114a7565b5f805f80516020612cfb8339815191528054604051632fd514cd60e11b8152600481018790526001600160a01b038681166024830152929350911690635faa299a90604401602060405180830381865afa1580156122d6573d5f803e3d5ffd5b505050506040513d601f19601f820116820180604052508101906114679190612bca565b5f80821561230d5750600160f81b612310565b505f5b5f80516020612d1b83398151915254604051630ccd46b160e31b815260048101879052602481018690526001600160f81b0319831660448201525f80516020612cfb833981519152916001600160a01b03169063666a358890606401611e39565b6001600160a01b0384166123a357604051634b637e8f60e11b81526001600160a01b0385166004820152602401611100565b6001600160a01b0383166123d55760405163ec442f0560e01b81526001600160a01b0384166004820152602401611100565b5f6123e482846105fa5f61144f565b6001600160a01b0385165f908152600360205260408120549192509061240a908361146f565b6001600160a01b0386165f908152600360205260409020819055905061242f8161149d565b61243981866114a7565b6001600160a01b0386165f9081526003602052604081205461245b9084611991565b6001600160a01b0388165f90815260036020526040902081905590506124808161149d565b61065c81886114a7565b5f8261249c576124995f61144f565b92505b816124ad576124aa5f61144f565b91505b610eff83835f6125df565b5f826124ca576124c75f61144f565b92505b610eff838367ffffffffffffffff16612656565b5f80516020612d1b8339815191525460405163025f346960e51b81526004810184905260f883901b6001600160f81b03191660248201525f915f80516020612cfb833981519152916001600160a01b0390911690634be68d2090604401611ee1565b5f8082156125535750600160f81b612556565b505f5b5f80516020612d1b8339815191525460405163052896f160e01b815260048101879052602481018690526001600160f81b0319831660448201525f80516020612cfb833981519152916001600160a01b03169063052896f190606401611e39565b5f826125c9576125c65f61144f565b92505b610eff838367ffffffffffffffff166001611fc2565b5f8082156125f25750600160f81b6125f5565b505f5b5f80516020612d1b8339815191525460405163816d57d360e01b815260048101879052602481018690526001600160f81b0319831660448201525f80516020612cfb833981519152916001600160a01b03169063816d57d390606401611e39565b5f80516020612d1b833981519152546040516336cdd31b60e01b81526004810184905260248101839052600160f81b604482018190525f9290915f80516020612cfb833981519152916001600160a01b0316906336cdd31b90606401611f79565b5f81518084525f5b818110156126db576020818501810151868301820152016126bf565b505f602082860101526020601f19601f83011685010191505092915050565b602081525f610eff60208301846126b7565b80356001600160a01b0381168114612722575f80fd5b919050565b5f8060408385031215612738575f80fd5b6127418361270c565b946020939093013593505050565b5f805f60608486031215612761575f80fd5b61276a8461270c565b92506127786020850161270c565b9150604084013590509250925092565b5f60208284031215612798575f80fd5b610eff8261270c565b5f8083601f8401126127b1575f80fd5b50813567ffffffffffffffff8111156127c8575f80fd5b6020830191508360208285010111156127df575f80fd5b9250929050565b5f805f604084860312156127f8575f80fd5b83359250602084013567ffffffffffffffff811115612815575f80fd5b612821868287016127a1565b9497909650939450505050565b5f806040838503121561283f575f80fd5b50508035926020909101359150565b5f805f8060608587031215612861575f80fd5b61286a8561270c565b935060208501359250604085013567ffffffffffffffff81111561288c575f80fd5b612898878288016127a1565b95989497509550505050565b5f805f805f608086880312156128b8575f80fd5b6128c18661270c565b94506128cf6020870161270c565b935060408601359250606086013567ffffffffffffffff8111156128f1575f80fd5b6128fd888289016127a1565b969995985093965092949392505050565b8015158114610ed4575f80fd5b5f806040838503121561292c575f80fd5b82359150602083013561293e8161290e565b809150509250929050565b5f60208284031215612959575f80fd5b5035919050565b5f60208284031215612970575f80fd5b813567ffffffffffffffff81168114610eff575f80fd5b5f8060408385031215612998575f80fd5b6129a18361270c565b91506129af6020840161270c565b90509250929050565b600181811c908216806129cc57607f821691505b6020821081036129ea57634e487b7160e01b5f52602260045260245ffd5b50919050565b5f60208284031215612a00575f80fd5b5051919050565b634e487b7160e01b5f52601160045260245ffd5b8181038181111561054b5761054b612a07565b808202811582820484141761054b5761054b612a07565b5f82612a5f57634e487b7160e01b5f52601260045260245ffd5b500490565b5f60018201612a7557612a75612a07565b5060010190565b8082018082111561054b5761054b612a07565b634e487b7160e01b5f52603260045260245ffd5b5f60208284031215612ab3575f80fd5b815160ff81168114610eff575f80fd5b60ff828116828216039081111561054b5761054b612a07565b600181815b80851115612b1657815f1904821115612afc57612afc612a07565b80851615612b0957918102915b93841c9390800290612ae1565b509250929050565b5f82612b2c5750600161054b565b81612b3857505f61054b565b8160018114612b4e5760028114612b5857612b74565b600191505061054b565b60ff841115612b6957612b69612a07565b50506001821b61054b565b5060208310610133831016604e8410600b8410161715612b97575081810a61054b565b612ba18383612adc565b805f1904821115612bb457612bb4612a07565b029392505050565b5f610eff60ff841683612b1e565b5f60208284031215612bda575f80fd5b8151610eff8161290e565b67ffffffffffffffff828116828216039080821115612c0657612c06612a07565b5092915050565b67ffffffffffffffff818116838216019080821115612c0657612c06612a07565b5f815180845260208085019450602084015f5b83811015612c5d57815187529582019590820190600101612c41565b509495945050505050565b602081525f610eff6020830184612c2e565b60a081525f612c8c60a0830188612c2e565b6001600160e01b031996909616602083015250604081019390935260608301919091521515608090910152919050565b8481526001600160a01b0384166020820152608060408201525f612ce360808301856126b7565b905060ff60f81b831660608301529594505050505056feed8d60e34876f751cc8b014c560745351147d9de11b9347c854e881b128ea600ed8d60e34876f751cc8b014c560745351147d9de11b9347c854e881b128ea601a164736f6c6343000818000aed8d60e34876f751cc8b014c560745351147d9de11b9347c854e881b128ea600",
  "linkReferences": {},
  "deployedLinkReferences": {}
}